:020000040000fa
:080000000002040000000000f2
:020000040000fa
:1000080090020000900200009002000090020000a0
:100018009002000090020000900200009002000090
:10002800900200009002000090020000800300008f
:100038009002000090020000900200009002000070
:100048009002000090020000900200009002000060
:100058009002000090020000900200009002000050
:10006800900200009002000090020000d4030000fb
:10007800340400009002000090020000900200008a
:100088009002000090020000900200009002000020
:100098009002000090020000900200009002000010
:1000a8009002000090020000900200009002000000
:1000b80090020000900200009002000090020000f0
:1000c80090020000900200009002000090020000e0
:1000d80090020000900200009002000090020000d0
:1000e80090020000900200009002000090020000c0
:1000f80090020000900200009002000090020000b0
:10010800900200009002000090020000900200009f
:10011800900200009002000090020000900200008f
:10012800900200009002000090020000900200007f
:10013800900200009002000090020000900200006f
:10014800900200009002000090020000900200005f
:10015800900200009002000090020000900200004f
:10016800900200009002000090020000900200003f
:10017800900200009002000090020000900200002f
:10018800900200009002000090020000900200001f
:10019800900200009002000090020000900200000f
:1001a80090020000900200009002000090020000ff
:1001b80090020000900200009002000090020000ef
:1001c80090020000900200009002000090020000df
:1001d80090020000900200009002000090020000cf
:1001e80090020000900200009002000090020000bf
:0801f8009002000090020000db
:020000040000fa
:10020800900200009002000090020000900200009e
:10021800900200009002000090020000900200008e
:10022800900200009002000090020000800300008d
:10023800900200009002000090020000900200006e
:10024800900200009002000090020000900200005e
:10025800900200009002000090020000900200004e
:10026800900200009002000090020000d4030000f9
:100278003404000090020000900200009002000088
:10028800900200009002000090020000900200001e
:10029800900200009002000090020000900200000e
:1002a80090020000900200009002000090020000fe
:1002b80090020000900200009002000090020000ee
:1002c80090020000900200009002000090020000de
:1002d80090020000900200009002000090020000ce
:1002e80090020000900200009002000090020000be
:1002f80090020000900200009002000090020000ae
:10030800900200009002000090020000900200009d
:10031800900200009002000090020000900200008d
:10032800900200009002000090020000900200007d
:10033800900200009002000090020000900200006d
:10034800900200009002000090020000900200005d
:10035800900200009002000090020000900200004d
:10036800900200009002000090020000900200003d
:10037800900200009002000090020000900200002d
:10038800900200009002000090020000900200001d
:10039800900200009002000090020000900200000d
:1003a80090020000900200009002000090020000fd
:1003b80090020000900200009002000090020000ed
:1003c80090020000900200009002000090020000dd
:1003d80090020000900200009002000090020000cd
:1003e80090020000900200009002000090020000bd
:0803f8009002000090020000d9
:020000040000fa
:100400008f8020000eff20000e01880000000000f9
:100410000c000700a056200001002000110007007a
:10042000000020000000e000020032000000020096
:10043000000000009a040200000000000040da0002
:100440000000fe004440a900000020000000e00081
:100450000300320000002000a00188004440a800f2
:100460000000060091018800800078000000eb0089
:1004700015003700e280400032a0b4009101ba00bc
:10048000e280400032a0b4009102ba00e280400055
:1004900032a0b4000002eb00472bde00f507b200eb
:1004a000602ce10004003a000059eb008301e900f0
:1004b000fdff3e00040037006128e100010032002a
:1004c0000082eb00040007001101ba000200e00006
:1004d000e8ff3a00000006003159ba008301e90044
:1004e0000c0032002159ba008301e90008003200f3
:1004f0000400e00003003a00e280400032a0b400b3
:10050000f5ff370011d9ba008301e900faff3a007c
:100510008100e800e180400032a0b4000000060045
:100520000040da000000fe008460a900670160005e
:100530004c11dd0023058000f1ff2800818061005f
:10054000828070002105880068006000a10480009e
:100550000130a10080807000a10488000000060026
:100560000021ef0011088800200888000000060024
:020000040000fa
:100570000000fa0010408000e10f500004003a0033
:10058000cc22a80020002000104088001300370073
:1005900010408000e20f500004003a00cc42a80056
:1005a00030002000104088000c0037001040800010
:1005b000e30f500004003a00cc62a8000000eb00fa
:1005c0001040880005003700cc22a900cc42a900c9
:1005d000cc62a90010002000104088000080fa00c2
:1005e000000006000000fa0010408000e10f5000fb
:1005f00004003a00c402a800200020001040880037
:100600001300370010408000e20f500004003a0051
:10061000c422a80030002000104088000c003700e1
:1006200010408000e30f500004003a00cc02a80004
:100630000000eb001040880005003700c402a9004c
:10064000c422a900cc02a90010002000104088009c
:100650000080fa00000006000000fa001040800050
:10066000e10f500005003a00c402a800cc22a80007
:100670002000200010408800180037001040800043
:10068000e20f500005003a00c422a800cc42a800a6
:10069000300020001040880010003700104080001b
:1006a000e30f500005003a00cc02a800cc62a8007d
:1006b0000000eb001040880008003700c402a900c9
:1006c000c422a900cc02a900cc22a900cc42a900d6
:1006d000cc62a90010002000104088000080fa00c1
:1006e000000006000000fa000000eb002016880061
:1006f0000000eb00601688000080fa000000060091
:100700003600f800809fbe00829fbe00849fbe001e
:10071000869fbe003400f80000002000a001880081
:100720000000fa0000408000e40f500005003c008b
:10073000004080000000e800004088008460a900bc
:10074000110037000000eb000040880030408000be
:10075000e00f500009003a0020408000e10f5000f7
:1007600001003a009fff070020408000e20f500088
:1007700003003a007eff070001003700b6ff0700c4
:100780008460a900000000000080fa003400f90035
:100790004f03be004f02be004f01be004f00be001f
:1007a0003600f900004006003600f800809fbe00c9
:1007b000829fbe00849fbe00869fbe003400f8006a
:1007c00000002000a00188000000fa0051168000ff
:1007d0000020200000806000e00f50000c0032007c
:1007e000511680000040200000806000e00f5000a3
:1007f000070032008660a9000000eb00204088005e
:10080000b8ff07000000eb00104088000e00370022
:10081000511680000020200000806000e00f500092
:1008200004003a0005e1a8001000200020408800e4
:100830000300370005e1a8002000200020408800c8
:100840008660a900000000000080fa003400f90072
:100850004f03be004f02be004f01be004f00be005e
:100860003600f900004006003600f800809fbe0008
:10087000829fbe00849fbe00869fbe003400f800a9
:1008800000002000a00188000000fa001004800091
:10089000e200600010c0b300e08f500001003200a1
:1008a0000040eb000080fb006100600000004000a1
:1008b00012048000d1ff2f008100610000807000d1
:1008c0001004880051168000008020000080600025
:1008d000e00f500006003a000000eb0010408800d6
:1008e00005e1a80010002000304088000800370013
:1008f000511680000080200000806000e00f500052
:10090000030032000000eb003040880075ff070054
:100910008680a9000080fa003400f9004f03be0071
:100920004f02be004f01be004f00be003600f9006e
:10093000004006000400fa00000f7800110798003c
:10094000050007002c0007004700070059000700ba
:1009500000000000feff37000000fa0090022000b7
:10096000303a8800213a8000f0f32f0000806000c8
:10097000203a8800213a800000fe2f0000806000ad
:10098000203a88001200200080072000a1092000e2
:1009900033742000804978008149780082497800ca
:1009a0001200200060042000710520002374200044
:1009b0008049780081497800824978000000000071
:1009c000113a8000000027008080600000002100b4
:1009d000808f5000faff3a0000000000113a8000ba
:1009e0000002200000806000e00f5000fbff32009a
:1009f0000080fa00000006000000fa00c922a800ea
:100a0000c942a800c962a80001348000f00f2e007e
:100a10008080600000b020000080700000348800fa
:100a200069e0a8006a00a8006aa0a8006200a80007
:100a300062a0a8000080eb0060198800c002a90035
:100a4000c022a900c802a900c822a900c842a90062
:100a5000c862a900c9a2a900c9c2a900c9e2a90027
:100a60000080fa00000006000000fa009660a8006e
:100a70009680a80061058000f0ff2800808060005b
:100a80000000220000807000600588007105800071
:100a900080ff2f00008060000020a000700588000b
:100aa0008660a9008680a9008220a8000080fa0044
:100ab000000006000000fa0041422f0090fa2500d5
:100ac000a7fe0700a0ff2f0097fe07000080fa0096
:040ad000000006001c
:020000040000fa
:100ad4000008000008000000020000000000000000
:0c0ae40000000000000000000000000006
:020000040000fa
:0200000401f009
:04000000ffff0000fe
:020000040000fa
:0200000401f009
:04000800ffff0000f6
:020000040000fa
:0200000401f009
:04000c0079ff000078
:020000040000fa
:0200000401f009
:040010007bff000072
:020000040000fa
:0200000401f009
:040014006dff00007c
:020000040000fa
:0200000401f009
:04001800ffff0000e6
:020000040000fa
:0200000401f009
:04001c00dfff000002
:00000001FF
